:100000000C9458000C9475000C9475000C947500B9
:100010000C9475000C9475000C9475000C941304EA
:100020000C9475000C9475000C9475000C9475007C
:100030000C9475000C9475000C9475000C9475006C
:100040000C9475000C9475000C9475000C9475005C
:100050000C9475000C9475000C947500E004E00499
:10006000EB04EB04F704FC04FC04FE04FE04FE04B1
:100070000A05D004D004DC042C052C053C053C0505
:100080004C056005600550055005500562051C05CE
:100090001C0518059F059F05AF05AF05BF05D305D6
:1000A000D305C305C305C305D5058F058F058B058E
:1000B00011241FBECFEFD0E1DEBFCDBF11E0A0E025
:1000C000B1E0E6EEF4E102C005900D92AA31B1076D
:1000D000D9F721E0AAE1B1E001C01D92AB32B2072D
:1000E000E1F70E9435080C94710A0C940000682F07
:1000F00070E0719561957109072E000C880B990BC2
:100100000E9478092CE436EA4AEA5EE30E94040A77
:1001100020E030E04EEF52E40E94DB080E944709E5
:1001200081E00C9477040AC02FEF33ED40E32150B7
:1001300030404040E1F700C0000001970097A1F770
:10014000089507C0EFE9FFE03197F1F700C0000024
:1001500001970097B9F7089505C025E02A95F1F7B2
:10016000000001970097C9F7089561E00C940D0510
:1001700061E00C94800560E00C948005CF93DF93E0
:10018000EC0181E00E941F08888380E00E941F0824
:100190008983DF91CF9108958130B1F070E080E0E4
:1001A00090E00E9478092CE436EA4AEA5EE30E9475
:1001B000040A20E030E04EEF52E40E94DB080E9487
:1001C000470980E00C947704862F0C947700CF9336
:1001D000C62F682F70E080E090E00E9478092CE440
:1001E00036EA4AEA5EE30E94040A20E030E04EEF7D
:1001F00052E40E94DB080E94470980E00E947704D5
:100200008C2FCF910C9477000C941F080F931F93A1
:10021000CF93DF93082F162FD42FC22F0E94F903FC
:1002200060E080E00E945902802F90E00E946F03FE
:1002300060E084E00E945902812F90E00E946F03E9
:1002400061E080E00E9459028D2F90E00E946F03D0
:1002500061E084E00E9459028C2F90E0DF91CF9101
:100260001F910F910C946F03CF93DF93D82FC62F5C
:100270000E94F90360E080E00E9459028D2F90E017
:100280000E946F0361E080E00E9459028C2F90E091
:10029000DF91CF910C946F03CF93C82F0E94F90385
:1002A00060E080E00E9459028C2F90E0CF910C9486
:1002B0006F03FC018081883CB0F09BEE981B953663
:1002C00008F090E0DB019C939181983C40F08BEE2C
:1002D000891B853608F080E0FB018183089583E265
:1002E000FB018183089593E2EDCFFC018181883C7D
:1002F000B0F09BEE981B953608F090E0DB019C93E4
:100300009081983C40F08BEE891B853608F080E0A8
:10031000FB018183089583E2FB018183089593E2C9
:10032000EDCF883C38F09BEE981B892F953620F056
:1003300080E0089583E208950895CF93C82F0E9426
:10034000BE04882361F0C13089F081E00E94070675
:1003500080E00E940106C1E08C2FCF910895CC234C
:1003600029F0C13091F38C2FCF91089580E00E9445
:10037000070681E00E940106C0E08C2FCF9108950E
:100380005D9A5C980895262F3FEF81110EC063039C
:10039000C001112464E670E00E94B1086093B300CC
:1003A00012169CF45C9A5D9808956303C0011124B1
:1003B00064E670E00E94B10867BD12161CF45E9AF4
:1003C0005F9808955F9A5E9808950C94C001CF934A
:1003D000DF93C3EBD0E018820E94C00117BC5F9A84
:1003E0005E9884B1806984B98AB1806F8AB9E0EB84
:1003F000F0E080818866808380818260808384B51C
:10040000886684BD84B5826084BD8AE087BD8883A8
:10041000DF91CF9108955C9A5D982C9A5F9A5E98CF
:100420002F9A08958AE08A95F1F700C0449A8AE0ED
:100430008A95F1F700C044988AE08A95F1F700C0E8
:100440000895F89482B98AE08A95F1F700C0449A39
:100450008AE08A95F1F700C044988AE08A95F1F71E
:1004600000C0789408958F98F89482B98AE08A95AC
:10047000F1F700C0449A8AE08A95F1F700C04498E9
:100480008AE08A95F1F700C0789408958F9AF894DD
:1004900082B98AE08A95F1F700C0449A8AE08A9589
:1004A000F1F700C044988AE08A95F1F700C078948B
:1004B0000895803110F4623008F0089590E4699F47
:1004C000800D112480588F98F89482B98AE08A951B
:1004D000F1F700C0449A9AE09A95F1F700C0449869
:1004E0008AE08A95F1F700C0789495EC9A95F1F737
:1004F000000008953C9A879A8FEF81B98FE19EE4BE
:100500000197F1F700C000008F98F89488E382B952
:100510009AE09A95F1F700C0449AEAE0EA95F1F77B
:1005200000C04498FAE0FA95F1F700C07894EFE73C
:10053000F2E03197F1F700C000008F98F89482B98B
:10054000FAE0FA95F1F700C0449A9AE09A95F1F72B
:1005500000C04498EAE0EA95F1F700C07894EFE72C
:10056000F2E03197F1F700C000008F98F89482B95B
:10057000FAE0FA95F1F700C0449A9AE09A95F1F7FB
:1005800000C04498EAE0EA95F1F700C07894EFE7FC
:10059000F2E03197F1F700C000008F98F89498E0EE
:1005A00092B9FAE0FA95F1F700C0449A9AE09A9568
:1005B000F1F700C04498EAE0EA95F1F700C07894BA
:1005C000EFE7F2E03197F1F700C000008F98F89460
:1005D00091E092B9FAE0FA95F1F700C0449A9AE0F6
:1005E0009A95F1F700C04498EAE0EA95F1F700C067
:1005F0007894EFE7FEE33197F1F700C000008F98A1
:10060000F89496E092B9FAE0FA95F1F700C0449AAE
:100610009AE09A95F1F700C04498EAE0EA95F1F77C
:1006200000C07894EFE7F2E03197F1F700C00000E6
:100630008F98F89482B9FAE0FA95F1F700C0449ADD
:100640008AE08A95F1F700C044989AE09A95F1F70C
:1006500000C07894EFE8F1E03197F1F700C00000B6
:100660008F98F8948CE082B9FAE0FA95F1F700C01F
:10067000449A8AE08A95F1F700C044989AE09A95E6
:10068000F1F700C07894EFE8F1E03197F1F700C09E
:1006900000000895DC019C91992301F120E08F9ADC
:1006A000F89492B98AE08A95F1F700C0449A9AE0EA
:1006B0009A95F1F700C044988AE08A95F1F700C056
:1006C00078948FE792E00197F1F700C000002F5F68
:1006D000FD01E20FF11D90819111E1CF08951F936B
:1006E000CF93DF93FC01892B09F466C045E011E04C
:1006F0002FE037E2E9012196CF01BE010E949D085B
:1007000061111DC02E173F0708F052C01123A9F137
:1007100011E0CF01BE010E949D08FC01ADECBCECD4
:100720000E94CB089C0136952795369527953695DE
:1007300027954150F9F6DF91CF911F9108952E171B
:100740003F07D8F0605D8F9AF89462B99AE09A9565
:10075000F1F700C0449A8AE08A95F1F700C0449806
:100760009AE09A95F1F700C078948FE792E00197AC
:10077000F1F700C0000010E0D1CF605D8F9AF894CF
:1007800062B99AE09A95F1F700C0449A8AE08A9596
:10079000F1F700C044989AE09A95F1F700C0789478
:1007A0008FE792E00197F1F700C0000010E0B1CFB1
:1007B000112341F211E0B2CF8F9AF89480E382B90D
:1007C0008AE08A95F1F700C0449A9AE09A95F1F789
:1007D00000C044988AE08A95F1F700C078948FE7CA
:1007E00092E00197F1F700C00000DF91CF911F91D7
:1007F00008958F98F89481E082B98AE08A95F1F79C
:1008000000C0449A9AE09A95F1F700C044988AE0B3
:100810008A95F1F700C078948FE79EE30197F1F78E
:1008200000C0000008951F920F920FB60F9211247E
:100830002F933F934F935F936F937F938F939F93E8
:10084000EF93FF9380911A014091880050918900A5
:1008500080FD30C08695E82FF0E0EE0FFF1FED5DC4
:10086000FE4F20813181240F351F30938900209362
:10087000880048B121E030E0B90102C0660F771F5F
:100880008A95E2F7CB01842B88B980911A018F5F9A
:10089000877080931A01FF91EF919F918F917F91C3
:1008A0006F915F914F913F912F910F900FBE0F90DD
:1008B0001F9018958695E82FF0E0EE0FFF1FE55E7C
:1008C000FE4F20813181240F351F30938900209302
:1008D000880048B121E030E0B90102C0660F771FFF
:1008E0008A95E2F7CB018095842388B9CECF90E03A
:1008F0002AE0629FB00111246C53764F880F991F34
:10090000FC01ED5DFE4F71836083FC01E55EFE4FEF
:1009100024ED30E3261B370B318320830895A3E2B7
:10092000B1E024EC39E011963C932E93EBE1F1E039
:1009300080E197E29183808313963C932E931297E4
:100940009383828315963C932E9314979583848387
:1009500017963C932E9316979783868387B18F6063
:1009600087B9E1E8F0E01082808182608083EFE661
:10097000F0E0808182608083789408958CB18095C6
:10098000881F8827881F0895482F50E04E30510552
:1009900010F080E00895FA01E25DFF4F0C94C50865
:1009A00023B130E08950A90102C0559547958A9539
:1009B000E2F7CA018170089583B186958170089528
:1009C0002CB130E0A90102C0559547958A95E2F710
:1009D000CA018170089522B330E08F5FA90102C07F
:1009E000559547958A95E2F7CA01817008958CB1B3
:1009F00086FB882780F9089523B1E3CF26B130E044
:100A00008250A90102C0559547958A95E2F7CA011F
:100A10008170089583B181700895962F482F50E01A
:100A20004E30510540F4FA01E45CFF4F0C94C508C8
:100A3000611164C02198089544B1895021E030E0EB
:100A4000B90102C0660F771F8A95E2F79923F1F189
:100A5000CB01842B84B908954DB121E030E0B90178
:100A600002C0660F771F8A95E2F7992309F43FC009
:100A7000CB01842B8DB9089543B38F5F21E030E023
:100A8000B90102C0660F771F8A95E2F7992329F111
:100A9000CB01842B83BB08956623E9F06E9A0895F9
:100AA00047B1825021E030E0B90102C0660F771FE4
:100AB0008A95E2F79923B1F0CB01842B87B9089589
:100AC00044B1BCCF6623C1F0209A0895CB01809534
:100AD000842384B908956E980895CB01809584236A
:100AE00083BB0895CB018095842387B90895CB01FA
:100AF000809584238DB9089520980895219A0895AA
:100B0000962F482F50E04E30510540F4FA01E65B35
:100B1000FF4F0C94C508611164C02998089545B130
:100B2000895021E030E0B90102C0660F771F8A9535
:100B3000E2F79923F1F1CB01842B85B908954EB1E9
:100B400021E030E0B90102C0660F771F8A95E2F715
:100B5000992309F43FC0CB01842B8EB9089544B387
:100B60008F5F21E030E0B90102C0660F771F8A95E0
:100B7000E2F7992329F1CB01842B84BB08956623E6
:100B8000E9F0769A089548B1825021E030E0B90149
:100B900002C0660F771F8A95E2F79923B1F0CB0167
:100BA000842B88B9089545B1BCCF6623C1F0289A3B
:100BB0000895CB018095842385B90895769808958A
:100BC000CB018095842384BB0895CB018095842339
:100BD00088B90895CB01809584238EB9089528980B
:100BE0000895299A0895811104C0613031F0A098C8
:100BF0000895613021F0A1980895A09A0895A19ACE
:100C00000895882311F0A19A0895A09A0895882341
:100C100011F0A1980895A0980895529A83B3836023
:100C200083BB779A0E9414080E947A020E948F0464
:100C30000E94E70141E06AE28CE10E94DF072FEFAA
:100C400081EE94E0215080409040E1F700C0000028
:100C50000C9449068DB18F7C8DB985E08A95F1F7AA
:100C600000006D9A759885E08A95F1F700006C9AFE
:100C7000749885E08A95F1F7000008956C9885E0F6
:100C80008A95F1F700006D9885E08A95F1F70000EC
:100C900008956D9885E08A95F1F7000065990DC07B
:100CA0006C9885E08A95F1F700006C9A749885E05D
:100CB0008A95F1F70000659BF3CF6C9808956C98C6
:100CC00085E08A95F1F700006C9A749885E08A9522
:100CD000F1F7000008951F93CF93DF93D82FC62F0D
:100CE000142F0E9449060E942A0687E013C06D98BF
:100CF00095E09A95F1F700006C9895E09A95F1F7D8
:100D000000006C9A749895E09A95F1F70000DD0F59
:100D1000815029F0D6FDEBCF6D9A7598E9CF6D9A89
:100D2000759885E08A95F1F700006C9895E09A95A2
:100D3000F1F700006C9A749885E08A95F1F700004D
:100D40006D9895E09A95F1F700006C98659B05C049
:100D500080E091E00E944A03FFCF85E08A95F1F799
:100D600000006C9A749895E09A95F1F7000088E07D
:100D700014C06D9A759895E09A95F1F700006C98FB
:100D800095E09A95F1F700006C9A749895E09A9521
:100D9000F1F70000CC0F815021F0C7FFEACF6D982A
:100DA000EACF6D9885E08A95F1F700006C98659B15
:100DB00005C08CE091E00E944A03FFCF95E09A9530
:100DC000F1F700006C9A749885E08A95F1F70000BD
:100DD000112351F06C9895E09A95F1F700006D9809
:100DE00085E08A95F1F70000DF91CF911F9108957A
:100DF000FC016623D1F14FEF460F50E04F5F5F4F8C
:100E0000480F591F908128E016C06D9A759885E0AB
:100E10008A95F1F700006C9885E08A95F1F700005B
:100E20006C9A749885E08A95F1F700009081990F8B
:100E30009083215021F097FFE8CF6D98E8CF31964D
:100E40006D9885E08A95F1F700006C98659918C057
:100E500085E08A95F1F700006C9A749885E08A9590
:100E6000F1F70000E417F50769F66C9885E08A95BC
:100E7000F1F700006D9885E08A95F1F7000008957C
:100E800089E091E00E944A03FFCF0F931F93CF9315
:100E9000DF93082FEB01142F0E942A0687E013C06E
:100EA0006D9895E09A95F1F700006C9895E09A9509
:100EB000F1F700006C9A749895E09A95F1F70000AC
:100EC000000F815029F006FDEBCF6D9A7598E9CFA0
:100ED0006D9885E08A95F1F700006C9895E09A95F9
:100EE000F1F700006C9A749885E08A95F1F700009C
:100EF0006D9895E09A95F1F700006C98659B05C098
:100F000081E191E00E944A03FFCF85E08A95F1F7E5
:100F100000006C9A749895E09A95F1F700006D982E
:100F200085E08A95F1F700001123B1F12FEF210F31
:100F300030E02F5F3F4F2C0F3D1F98E08881880FD6
:100F400088836C9885E08A95F1F70000659B03C063
:100F500088818160888385E08A95F1F700006C9A2A
:100F6000749885E08A95F1F70000915039F76D9AF1
:100F7000759895E09A95F1F700006C9885E08A9550
:100F8000F1F700006C9A749895E09A95F1F70000DB
:100F900021962C173D0789F695E09A95F1F7000008
:100FA0006C9885E08A95F1F700006D9895E09A9528
:100FB000F1F70000DF91CF911F910F910895CF932A
:100FC000DF931F92CDB7DEB7498340E00E946B06E6
:100FD00061E0CE0101960E94F8060F90DF91CF915B
:100FE00008951F93CF93DF931F92CDB7DEB7182FCD
:100FF00041E00E946B0641E0BE016F5F7F4F812F91
:101000000E94450789810F90DF91CF911F9108952C
:1010100061E08CE10C94F10763E08CE10C94F10742
:1010200065E08CE10C94F107EAE7F0E080818768E5
:101030008083ECE7F0E08081806680830895909162
:101040007C00987F90937C0090917C00892B80930A
:101050007C0080917A00806480937A0080917A008D
:1010600086FDFCCF809179000895CF93DF9300D067
:10107000CDB7DEB70E940D066FE780E00E947704CF
:1010800080E00E94770081E00E949D01182F198264
:101090001A82F12C00E09BEEE92ECE0101960E940F
:1010A000BE00112391F1113091F48981883C08F43C
:1010B00042C00E2D081B053608F000E08A81883CEE
:1010C000A8F1FE2CF81A84E68F1508F4F12C6F2D88
:1010D000802F0E94E7002F2D4A81602F89810E9476
:1010E000060188EC90E0EFE9FFE03197F1F700C0EE
:1010F00000000197C1F7812F0E949D01182FCE019A
:1011000001960E94BE001111CECF8A81883C88F0E2
:101110000E2D081B053608F000E08981883C30F070
:10112000FE2CF81AE4E6EF1588F2D1CF83E2F82E10
:10113000CECF03E2F2CF03E2C1CFAA1BBB1B51E12A
:1011400007C0AA1FBB1FA617B70710F0A61BB70B37
:10115000881F991F5A95A9F780959095BC01CD01DC
:10116000089597FB072E16F4009407D077FD09D059
:101170000E949D0807FC05D03EF4909581959F4FF5
:101180000895709561957F4F0895EE0FFF1F0590AC
:10119000F491E02D0994A29FB001B39FC001A39FD9
:1011A000700D811D1124911DB29F700D811D1124A0
:1011B000911D08955058BB27AA270E94F2080C944D
:1011C000CA090E94BC0938F00E94C30920F039F412
:1011D0009F3F19F426F40C94B9090EF4E095E7FB4F
:1011E0000C94B309E92F0E94DB0958F3BA17620780
:1011F00073078407950720F079F4A6F50C94FD0990
:101200000EF4E0950B2EBA2FA02D0B01B901900121
:101210000C01CA01A0011124FF27591B99F0593F65
:1012200050F4503E68F11A16F040A22F232F342FAD
:101230004427585FF3CF469537952795A795F040FB
:101240005395C9F77EF41F16BA0B620B730B840B10
:10125000BAF09150A1F0FF0FBB1F661F771F881FC8
:10126000C2F70EC0BA0F621F731F841F48F4879520
:1012700077956795B795F7959E3F08F0B0CF939512
:10128000880F08F09927EE0F9795879508950E948B
:10129000E30988F09F5798F0B92F9927B751B0F01C
:1012A000E1F0660F771F881F991F1AF0BA95C9F7EA
:1012B00014C0B13091F00E94FD09B1E008950C9482
:1012C000FD09672F782F8827B85F39F0B93FCCF335
:1012D000869577956795B395D9F73EF49095809567
:1012E000709561957F4F8F4F9F4F0895E89409C087
:1012F00097FB3EF490958095709561957F4F8F4F49
:101300009F4F9923A9F0F92F96E9BB279395F6955E
:10131000879577956795B795F111F8CFFAF4BB0FDC
:1013200011F460FF1BC06F5F7F4F8F4F9F4F16C040
:10133000882311F096E911C0772321F09EE8872FCA
:10134000762F05C0662371F096E8862F70E060E086
:101350002AF09A95660F771F881FDAF7880F9695FF
:10136000879597F9089597F99F6780E870E060E0A6
:1013700008959FEF80EC089500240A94161617062E
:1013800018060906089500240A9412161306140676
:1013900005060895092E0394000C11F4882352F0D9
:1013A000BB0F40F4BF2B11F460FF04C06F5F7F4F91
:1013B0008F4F9F4F089557FD9058440F551F59F078
:1013C0005F3F71F04795880F97FB991F61F09F3F32
:1013D00079F087950895121613061406551FF2CF5B
:1013E0004695F1DF08C0161617061806991FF1CFAB
:1013F00086957105610508940895E894BB276627D2
:101400007727CB0197F908950E94170A0C94CA090F
:101410000E94BC0938F00E94C30920F0952311F006
:101420000C94B3090C94B90911240C94FE090E9480
:10143000DB0970F3959FC1F3950F50E0551F629F34
:10144000F001729FBB27F00DB11D639FAA27F00D1D
:10145000B11DAA1F649F6627B00DA11D661F829F44
:101460002227B00DA11D621F739FB00DA11D621F29
:10147000839FA00D611D221F749F3327A00D611D46
:10148000231F849F600D211D822F762F6A2F112428
:101490009F5750409AF0F1F088234AF0EE0FFF1F5B
:1014A000BB1F661F771F881F91505040A9F79E3FB2
:1014B000510580F00C94B3090C94FE095F3FE4F3EE
:1014C000983ED4F3869577956795B795F795E79508
:1014D0009F5FC1F7FE2B880F911D9695879597F911
:0614E0000895F894FFCF0F
:1014E600616464724E41434B0077725F4E41434BD9
:0A14F60000726561644E41434B0033
:00000001FF
