:100000000C9458000C9475000C9475000C947500B9
:100010000C9475000C9475000C9475000C946F038F
:100020000C9475000C9475000C9475000C9475007C
:100030000C9475000C9475000C9475000C9475006C
:100040000C9475000C9475000C9475000C9475005C
:100050000C9475000C9475000C9475003C043C04E1
:10006000470447045304580458045A045A045A04D1
:1000700066042C042C04380488048804980498042A
:10008000A804BC04BC04AC04AC04AC04BE047804F6
:1000900078047404FB04FB040B050B051B052F05FA
:1000A0002F051F051F051F053105EB04EB04E704B1
:1000B00011241FBECFEFD0E1DEBFCDBF11E0A0E025
:1000C000B1E0E4E8F3E102C005900D92AA31B10776
:1000D000D9F721E0AAE1B1E001C01D92AB32B2072D
:1000E000E1F70E9491070C94C0090C9400002FEFD7
:1000F00083ED90E3215080409040E1F700C0000084
:10010000089507C0EFE9FFE03197F1F700C0000064
:1001100001970097B9F7089505C025E02A95F1F7F2
:10012000000001970097C9F7089561E00C946904F5
:1001300061E00C94DC0460E00C94DC04FC01808140
:100140008F5F808381818F5F818308950F931F93D9
:10015000CF93DF93EC018B01FB0160817181072E4E
:10016000000C880B990B0E94C7082CE436EA4AEA77
:100170005EE30E94530920E030E04EEF52E40E941B
:100180002A080E9496086883F80162817381072E0D
:10019000000C880B990B0E94C7082CE436EA4AEA47
:1001A0005EE30E94530920E030E04EEF52E40E94EB
:1001B0002A080E9496086983DF91CF911F910F91C1
:1001C0000895CF93DF93EC01688180E00E94D30310
:1001D000698181E0DF91CF910C94D3030F931F933A
:1001E000CF93DF938C01EB010E94550360E080E028
:1001F0000E94B501F801808190E00E94CB0260E08E
:1002000084E00E94B501888190E00E94CB0261E009
:1002100080E00E94B501F801818190E00E94CB024C
:1002200061E084E00E94B501898190E0DF91CF9187
:100230001F910F910C94CB025D9A5C980895262F24
:100240003FEF81110EC06303C001112464E670E02A
:100250000E9400086093B30012169CF45C9A5D98AB
:1002600008956303C001112464E670E00E94000851
:1002700067BD12161CF45E9A5F9808955F9A5E98A7
:1002800008950C941C01CF93DF93C3EBD0E0188248
:100290000E941C0117BC5F9A5E9884B1806984B982
:1002A0008AB1806F8AB9E0EBF0E080818866808354
:1002B00080818260808384B5886684BD84B58260D5
:1002C00084BD8AE087BD8883DF91CF9108955C9AD1
:1002D0005D982C9A5F9A5E982F9A08958AE08A9585
:1002E000F1F700C0449A8AE08A95F1F700C044987B
:1002F0008AE08A95F1F700C00895F89482B98AE0FF
:100300008A95F1F700C0449A8AE08A95F1F700C017
:1003100044988AE08A95F1F700C0789408958F9800
:10032000F89482B98AE08A95F1F700C0449A8AE08D
:100330008A95F1F700C044988AE08A95F1F700C0E9
:10034000789408958F9AF89482B98AE08A95F1F7A3
:1003500000C0449A8AE08A95F1F700C044988AE088
:100360008A95F1F700C078940895803110F46230D6
:1003700008F0089590E4699F800D112480588F98AB
:10038000F89482B98AE08A95F1F700C0449A9AE01D
:100390009A95F1F700C044988AE08A95F1F700C079
:1003A000789495EC9A95F1F7000008953C9A879A15
:1003B0008FEF81B98FE19EE40197F1F700C0000053
:1003C0008F98F89488E382B99AE09A95F1F700C083
:1003D000449AEAE0EA95F1F700C04498FAE0FA9509
:1003E000F1F700C07894EFE7F2E03197F1F700C041
:1003F00000008F98F89482B9FAE0FA95F1F700C0FE
:10040000449A9AE09A95F1F700C04498EAE0EA9598
:10041000F1F700C07894EFE7F2E03197F1F700C010
:1004200000008F98F89482B9FAE0FA95F1F700C0CD
:10043000449A9AE09A95F1F700C04498EAE0EA9568
:10044000F1F700C07894EFE7F2E03197F1F700C0E0
:1004500000008F98F89498E092B9FAE0FA95F1F7D5
:1004600000C0449A9AE09A95F1F700C04498EAE0F7
:10047000EA95F1F700C07894EFE7F2E03197F1F7F1
:1004800000C000008F98F89491E092B9FAE0FA95D4
:10049000F1F700C0449A9AE09A95F1F700C04498A9
:1004A000EAE0EA95F1F700C07894EFE7FEE33197D0
:1004B000F1F700C000008F98F89496E092B9FAE046
:1004C000FA95F1F700C0449A9AE09A95F1F700C0C6
:1004D0004498EAE0EA95F1F700C07894EFE7F2E09B
:1004E0003197F1F700C000008F98F89482B9FAE0D4
:1004F000FA95F1F700C0449A8AE08A95F1F700C0B6
:1005000044989AE09A95F1F700C07894EFE8F1E00A
:100510003197F1F700C000008F98F8948CE082B911
:10052000FAE0FA95F1F700C0449A8AE08A95F1F76B
:1005300000C044989AE09A95F1F700C07894EFE8EB
:10054000F1E03197F1F700C000000895DC019C91C3
:10055000992301F120E08F9AF89492B98AE08A9564
:10056000F1F700C0449A9AE09A95F1F700C04498D8
:100570008AE08A95F1F700C078948FE792E00197BE
:10058000F1F700C000002F5FFD01E20FF11D908127
:100590009111E1CF08951F93CF93DF93FC01892B35
:1005A00009F466C045E011E02FE037E2E901219649
:1005B000CF01BE010E94EC0761111DC02E173F073D
:1005C00008F052C01123A9F111E0CF01BE010E9431
:1005D000EC07FC01ADECBCEC0E941A089C013695BE
:1005E000279536952795369527954150F9F6DF9151
:1005F000CF911F9108952E173F07D8F0605D8F9A15
:10060000F89462B99AE09A95F1F700C0449A8AE0AA
:100610008A95F1F700C044989AE09A95F1F700C0E6
:1006200078948FE792E00197F1F700C0000010E0A6
:10063000D1CF605D8F9AF89462B99AE09A95F1F7FC
:1006400000C0449A8AE08A95F1F700C044989AE085
:100650009A95F1F700C078948FE792E00197F1F74F
:1006600000C0000010E0B1CF112341F211E0B2CF81
:100670008F9AF89480E382B98AE08A95F1F700C0F6
:10068000449A9AE09A95F1F700C044988AE08A95D6
:10069000F1F700C078948FE792E00197F1F700C07E
:1006A0000000DF91CF911F9108958F98F89481E019
:1006B00082B98AE08A95F1F700C0449A9AE09A9547
:1006C000F1F700C044988AE08A95F1F700C0789469
:1006D0008FE79EE30197F1F700C0000008951F9295
:1006E0000F920FB60F9211242F933F934F935F9366
:1006F0006F937F938F939F93EF93FF9380911A0152
:10070000409188005091890080FD30C08695E82F87
:10071000F0E0EE0FFF1FED5DFE4F20813181240FD1
:10072000351F309389002093880048B121E030E0E4
:10073000B90102C0660F771F8A95E2F7CB01842BBF
:1007400088B980911A018F5F877080931A01FF9199
:10075000EF919F918F917F916F915F914F913F9119
:100760002F910F900FBE0F901F9018958695E82F30
:10077000F0E0EE0FFF1FE55EFE4F20813181240F78
:10078000351F309389002093880048B121E030E084
:10079000B90102C0660F771F8A95E2F7CB018095F9
:1007A000842388B9CECF90E02AE0629FB001112463
:1007B0006C53764F880F991FFC01ED5DFE4F7183DE
:1007C0006083FC01E55EFE4F24ED30E3261B370B12
:1007D000318320830895A3E2B1E024EC39E011963F
:1007E0003C932E93EBE1F1E080E197E291838083EB
:1007F00013963C932E9312979383828315963C9382
:100800002E9314979583848317963C932E93169773
:100810009783868387B18F6087B9E1E8F0E0108223
:10082000808182608083EFE6F0E080818260808357
:10083000789408958CB18095881F8827881F089523
:10084000482F50E04E30510510F080E00895FA0135
:10085000E25DFF4F0C94140823B130E08950A901E8
:1008600002C0559547958A95E2F7CA0181700895AF
:1008700083B18695817008952CB130E0A90102C042
:10088000559547958A95E2F7CA018170089522B37C
:1008900030E08F5FA90102C0559547958A95E2F730
:1008A000CA01817008958CB186FB882780F908956C
:1008B00023B1E3CF26B130E08250A90102C05595A3
:1008C00047958A95E2F7CA018170089583B18170D6
:1008D0000895962F482F50E04E30510540F4FA010C
:1008E000E45CFF4F0C941408611164C021980895D2
:1008F00044B1895021E030E0B90102C0660F771F92
:100900008A95E2F79923F1F1CB01842B84B90895FC
:100910004DB121E030E0B90102C0660F771F8A9522
:10092000E2F7992309F43FC0CB01842B8DB90895D8
:1009300043B38F5F21E030E0B90102C0660F771F3B
:100940008A95E2F7992329F1CB01842B83BB089583
:100950006623E9F06E9A089547B1825021E030E0B5
:10096000B90102C0660F771F8A95E2F79923B1F0AB
:10097000CB01842B87B9089544B1BCCF6623C1F065
:10098000209A0895CB018095842384B908956E98A8
:100990000895CB018095842383BB0895CB01809576
:1009A000842387B90895CB01809584238DB9089558
:1009B00020980895219A0895962F482F50E04E30A0
:1009C000510540F4FA01E65BFF4F0C9414086111E5
:1009D00064C02998089545B1895021E030E0B901FB
:1009E00002C0660F771F8A95E2F79923F1F1CB01D8
:1009F000842B85B908954EB121E030E0B90102C0E1
:100A0000660F771F8A95E2F7992309F43FC0CB015F
:100A1000842B8EB9089544B38F5F21E030E0B90193
:100A200002C0660F771F8A95E2F7992329F1CB015F
:100A3000842B84BB08956623E9F0769A089548B123
:100A4000825021E030E0B90102C0660F771F8A951D
:100A5000E2F79923B1F0CB01842B88B9089545B111
:100A6000BCCF6623C1F0289A0895CB0180958423DA
:100A700085B9089576980895CB018095842384BB29
:100A80000895CB018095842388B90895CB01809582
:100A900084238EB9089528980895299A089581117C
:100AA00004C0613031F0A0980895613021F0A19820
:100AB0000895A09A0895A19A0895882311F0A19A03
:100AC0000895A09A0895882311F0A1980895A098F8
:100AD0000895529A83B3836083BB779A0E9470070C
:100AE0000E94D6010E94EB030E94430141E06AE2AA
:100AF0008CE10E943B072FEF81EE94E02150804073
:100B00009040E1F700C000000C94A5058DB18F7CEA
:100B10008DB985E08A95F1F700006D9A759885E0AA
:100B20008A95F1F700006C9A749885E08A95F1F740
:100B3000000008956C9885E08A95F1F700006D98A3
:100B400085E08A95F1F7000008956D9885E08A9513
:100B5000F1F7000065990DC06C9885E08A95F1F772
:100B600000006C9A749885E08A95F1F70000659B07
:100B7000F3CF6C9808956C9885E08A95F1F70000A2
:100B80006C9A749885E08A95F1F7000008951F9398
:100B9000CF93DF93D82FC62F142F0E94A5050E9454
:100BA000860587E013C06D9895E09A95F1F70000EF
:100BB0006C9895E09A95F1F700006C9A749895E01E
:100BC0009A95F1F70000DD0F815029F0D6FDEBCFAB
:100BD0006D9A7598E9CF6D9A759885E08A95F1F7C9
:100BE00000006C9895E09A95F1F700006C9A749863
:100BF00085E08A95F1F700006D9895E09A95F1F7F8
:100C000000006C98659B05C080E091E00E94A60200
:100C1000FFCF85E08A95F1F700006C9A749895E013
:100C20009A95F1F7000088E014C06D9A759895E0E8
:100C30009A95F1F700006C9895E09A95F1F700000D
:100C40006C9A749895E09A95F1F70000CC0F81505A
:100C500021F0C7FFEACF6D98EACF6D9885E08A95BD
:100C6000F1F700006C98659B05C08CE091E00E9454
:100C7000A602FFCF95E09A95F1F700006C9A749860
:100C800085E08A95F1F70000112351F06C9895E00A
:100C90009A95F1F700006D9885E08A95F1F70000CC
:100CA000DF91CF911F910895FC016623D1F14FEFA1
:100CB000460F50E04F5F5F4F480F591F908128E06B
:100CC00016C06D9A759885E08A95F1F700006C98CA
:100CD00085E08A95F1F700006C9A749885E08A9512
:100CE000F1F700009081990F9083215021F097FF38
:100CF000E8CF6D98E8CF31966D9885E08A95F1F749
:100D000000006C98659918C085E08A95F1F700009D
:100D10006C9A749885E08A95F1F70000E417F5075E
:100D200069F66C9885E08A95F1F700006D9885E08A
:100D30008A95F1F70000089589E091E00E94A602EB
:100D4000FFCF0F931F93CF93DF93082FEB01142F47
:100D50000E94860587E013C06D9895E09A95F1F79B
:100D600000006C9895E09A95F1F700006C9A7498E1
:100D700095E09A95F1F70000000F815029F006FDEB
:100D8000EBCF6D9A7598E9CF6D9885E08A95F1F76C
:100D900000006C9895E09A95F1F700006C9A7498B1
:100DA00085E08A95F1F700006D9895E09A95F1F746
:100DB00000006C98659B05C081E191E00E94A6024D
:100DC000FFCF85E08A95F1F700006C9A749895E062
:100DD0009A95F1F700006D9885E08A95F1F700008B
:100DE0001123B1F12FEF210F30E02F5F3F4F2C0F78
:100DF0003D1F98E08881880F88836C9885E08A95EC
:100E0000F1F70000659B03C088818160888385E0DD
:100E10008A95F1F700006C9A749885E08A95F1F74D
:100E20000000915039F76D9A759895E09A95F1F711
:100E300000006C9885E08A95F1F700006C9A749830
:100E400095E09A95F1F7000021962C173D0789F659
:100E500095E09A95F1F700006C9885E08A95F1F796
:100E600000006D9895E09A95F1F70000DF91CF9121
:100E70001F910F910895CF93DF931F92CDB7DEB7E7
:100E8000498340E00E94C70561E0CE0101960E94BF
:100E900054060F90DF91CF9108951F93CF93DF9366
:100EA0001F92CDB7DEB7182F41E00E94C70541E081
:100EB000BE016F5F7F4F812F0E94A10689810F9035
:100EC000DF91CF911F91089561E08CE10C944D0763
:100ED00063E08CE10C944D0765E08CE10C944D07C8
:100EE000EAE7F0E0808187688083ECE7F0E08081CA
:100EF00080668083089590917C00987F90937C0019
:100F000090917C00892B80937C0080917A00806492
:100F100080937A0080917A0086FDFCCF80917900E1
:100F20000895CF93DF9300D000D000D0CDB7DEB7C7
:100F30000E9469050E94EB031A8219821C821B829F
:100F400000E010E089818F5F89838A818F5F8A83C7
:100F500069817A81072E000C880B990B0E94C708C3
:100F60002CE436EA4AEA5EE30E94530920E030E0CE
:100F70004EEF52E40E942A080E9496086D83B80141
:100F8000110F880B990B0E94C7082CE436EA4AEA35
:100F90005EE30E94530920E030E04EEF52E40E94ED
:100FA0002A080E9496086E83BE016B5F7F4FCE01B8
:100FB00001960E94EE00CE0105960E94E10088ECA9
:100FC00090E0EFE9FFE03197F1F700C000000197F2
:100FD000C1F70B811C81B6CFAA1BBB1B51E107C017
:100FE000AA1FBB1FA617B70710F0A61BB70B881FB9
:100FF000991F5A95A9F780959095BC01CD01089548
:1010000097FB072E16F4009407D077FD09D00E94B5
:10101000EC0707FC05D03EF4909581959F4F08950D
:10102000709561957F4F0895EE0FFF1F0590F49125
:10103000E02D0994A29FB001B39FC001A39F700D42
:10104000811D1124911DB29F700D811D1124911DD0
:1010500008955058BB27AA270E9441080C941909EB
:101060000E940B0938F00E94120920F039F49F3FCA
:1010700019F426F40C9408090EF4E095E7FB0C949F
:101080000209E92F0E942A0958F3BA176207730769
:101090008407950720F079F4A6F50C944C090EF41A
:1010A000E0950B2EBA2FA02D0B01B90190010C0178
:1010B000CA01A0011124FF27591B99F0593F50F490
:1010C000503E68F11A16F040A22F232F342F4427E8
:1010D000585FF3CF469537952795A795F0405395E0
:1010E000C9F77EF41F16BA0B620B730B840BBAF0B0
:1010F0009150A1F0FF0FBB1F661F771F881FC2F71B
:101100000EC0BA0F621F731F841F48F4879577952E
:101110006795B795F7959E3F08F0B0CF9395880FE8
:1011200008F09927EE0F9795879508950E94320948
:1011300088F09F5798F0B92F9927B751B0F0E1F098
:10114000660F771F881F991F1AF0BA95C9F714C048
:10115000B13091F00E944C09B1E008950C944C0913
:10116000672F782F8827B85F39F0B93FCCF3869581
:1011700077956795B395D9F73EF4909580957095DE
:1011800061957F4F8F4F9F4F0895E89409C097FB5B
:101190003EF490958095709561957F4F8F4F9F4F4E
:1011A0009923A9F0F92F96E9BB279395F695879592
:1011B00077956795B795F111F8CFFAF4BB0F11F455
:1011C00060FF1BC06F5F7F4F8F4F9F4F16C08823FC
:1011D00011F096E911C0772321F09EE8872F762F32
:1011E00005C0662371F096E8862F70E060E02AF073
:1011F0009A95660F771F881FDAF7880F969587955F
:1012000097F9089597F99F6780E870E060E0089586
:101210009FEF80EC089500240A941616170618060E
:101220000906089500240A941216130614060506EA
:101230000895092E0394000C11F4882352F0BB0F7B
:1012400040F4BF2B11F460FF04C06F5F7F4F8F4FDE
:101250009F4F089557FD9058440F551F59F05F3F19
:1012600071F04795880F97FB991F61F09F3F79F0C8
:1012700087950895121613061406551FF2CF46954A
:10128000F1DF08C0161617061806991FF1CF8695CC
:101290007105610508940895E894BB2766277727B0
:1012A000CB0197F908950E9466090C9419090E94D0
:1012B0000B0938F00E94120920F0952311F00C94CC
:1012C00002090C94080911240C944D090E942A0962
:1012D00070F3959FC1F3950F50E0551F629FF00189
:1012E000729FBB27F00DB11D639FAA27F00DB11DA2
:1012F000AA1F649F6627B00DA11D661F829F22272B
:10130000B00DA11D621F739FB00DA11D621F839FB1
:10131000A00D611D221F749F3327A00D611D231F87
:10132000849F600D211D822F762F6A2F11249F57D5
:1013300050409AF0F1F088234AF0EE0FFF1FBB1FD8
:10134000661F771F881F91505040A9F79E3F510597
:1013500080F00C9402090C944D095F3FE4F3983E31
:10136000D4F3869577956795B795F795E7959F5F41
:10137000C1F7FE2B880F911D9695879597F90895D3
:04138000F894FFCF0F
:10138400616464724E41434B0077725F4E41434B3C
:0A13940000726561644E41434B0096
:00000001FF
